S01700004763634170706C69636174696F6E322E737265635A
S11300000C942A000C9447000C9447000C9447006D
S11300100C9447000C9447000C9447000C94470040
S11300200C9447000C9447000C9447000C94470030
S11300300C9447000C9447000C9447000C94470020
S11300400C9447000C9447000C9447000C94470010
S11300500C94470011241FBECFE5D8E0DEBFCDBF0E
S113006010E0A0E6B0E0E4EAF1E002C005900D92F1
S1130070AA36B107D9F720E0AAE6B0E001C01D9284
S1130080AC36B207E1F70E948B000C94D0000C94BC
S113009000009FEF92BBE82FF0E0E05AFF4F808111
S11300A085BB82B38E7F82BBEFE9FFE03197F1F726
S11300B000C0000092BBE62FF0E0E05AFF4F8081C1
S11300C085BB82B38D7F82BBEFE9FFE03197F1F707
S11300D000C0000092BBE42FF0E0E05AFF4F8081A3
S11300E085BB82B38B7F82BBEFE9FFE03197F1F7E9
S11300F000C0000092BBE22FF0E0E05AFF4F808185
S113010085BB82B3877F82BB8FE99FE00197F1F7BC
S113011000C0000008958FEF84BB8FE081BB9091F5
S11301206B001DEC919F012D1124069506950695F3
S1130130202F220F822F880F880F820FE92EE81AB2
S113014090916A00919F112D11241695169516957C
S1130150212F220F822F880F880F820FF92EF81A71
S1130160C0E0D0E007C02F2D412F6E2D802F0E94BC
S113017049002196CA30D105B0F380916A008F5F9F
S113018080936A008C3359F610926A0080916B0058
S11301908F5F80936B008C3311F610926B00BFCF8E
S10701A0F894FFCFFD
S10D01A43F065B4F666D7D077F6F19
S9030000FC
